{
  "_format": "hh-sol-artifact-1",
  "contractName": "MyToken",
  "sourceName": "contracts/NFT.sol",
  "abi": [
    {
      "inputs": [],
      "stateMutability": "nonpayable",
      "type": "constructor"
    },
    {
      "anonymous": false,
      "inputs": [
        {
          "indexed": true,
          "internalType": "address",
          "name": "owner",
          "type": "address"
        },
        {
          "indexed": true,
          "internalType": "address",
          "name": "approved",
          "type": "address"
        },
        {
          "indexed": true,
          "internalType": "uint256",
          "name": "tokenId",
          "type": "uint256"
        }
      ],
      "name": "Approval",
      "type": "event"
    },
    {
      "anonymous": false,
      "inputs": [
        {
          "indexed": true,
          "internalType": "address",
          "name": "owner",
          "type": "address"
        },
        {
          "indexed": true,
          "internalType": "address",
          "name": "operator",
          "type": "address"
        },
        {
          "indexed": false,
          "internalType": "bool",
          "name": "approved",
          "type": "bool"
        }
      ],
      "name": "ApprovalForAll",
      "type": "event"
    },
    {
      "anonymous": false,
      "inputs": [
        {
          "indexed": true,
          "internalType": "address",
          "name": "from",
          "type": "address"
        },
        {
          "indexed": true,
          "internalType": "address",
          "name": "to",
          "type": "address"
        },
        {
          "indexed": true,
          "internalType": "uint256",
          "name": "tokenId",
          "type": "uint256"
        }
      ],
      "name": "Transfer",
      "type": "event"
    },
    {
      "inputs": [
        {
          "internalType": "address",
          "name": "to",
          "type": "address"
        },
        {
          "internalType": "uint256",
          "name": "tokenId",
          "type": "uint256"
        }
      ],
      "name": "approve",
      "outputs": [],
      "stateMutability": "nonpayable",
      "type": "function"
    },
    {
      "inputs": [
        {
          "internalType": "address",
          "name": "owner",
          "type": "address"
        }
      ],
      "name": "balanceOf",
      "outputs": [
        {
          "internalType": "uint256",
          "name": "",
          "type": "uint256"
        }
      ],
      "stateMutability": "view",
      "type": "function"
    },
    {
      "inputs": [
        {
          "internalType": "uint256",
          "name": "tokenId",
          "type": "uint256"
        }
      ],
      "name": "getApproved",
      "outputs": [
        {
          "internalType": "address",
          "name": "",
          "type": "address"
        }
      ],
      "stateMutability": "view",
      "type": "function"
    },
    {
      "inputs": [
        {
          "internalType": "address",
          "name": "owner",
          "type": "address"
        },
        {
          "internalType": "address",
          "name": "operator",
          "type": "address"
        }
      ],
      "name": "isApprovedForAll",
      "outputs": [
        {
          "internalType": "bool",
          "name": "",
          "type": "bool"
        }
      ],
      "stateMutability": "view",
      "type": "function"
    },
    {
      "inputs": [],
      "name": "name",
      "outputs": [
        {
          "internalType": "string",
          "name": "",
          "type": "string"
        }
      ],
      "stateMutability": "view",
      "type": "function"
    },
    {
      "inputs": [
        {
          "internalType": "uint256",
          "name": "tokenId",
          "type": "uint256"
        }
      ],
      "name": "ownerOf",
      "outputs": [
        {
          "internalType": "address",
          "name": "",
          "type": "address"
        }
      ],
      "stateMutability": "view",
      "type": "function"
    },
    {
      "inputs": [
        {
          "internalType": "address",
          "name": "to",
          "type": "address"
        },
        {
          "internalType": "string",
          "name": "uri",
          "type": "string"
        }
      ],
      "name": "safeMint",
      "outputs": [],
      "stateMutability": "nonpayable",
      "type": "function"
    },
    {
      "inputs": [
        {
          "internalType": "address",
          "name": "from",
          "type": "address"
        },
        {
          "internalType": "address",
          "name": "to",
          "type": "address"
        },
        {
          "internalType": "uint256",
          "name": "tokenId",
          "type": "uint256"
        }
      ],
      "name": "safeTransferFrom",
      "outputs": [],
      "stateMutability": "nonpayable",
      "type": "function"
    },
    {
      "inputs": [
        {
          "internalType": "address",
          "name": "from",
          "type": "address"
        },
        {
          "internalType": "address",
          "name": "to",
          "type": "address"
        },
        {
          "internalType": "uint256",
          "name": "tokenId",
          "type": "uint256"
        },
        {
          "internalType": "bytes",
          "name": "data",
          "type": "bytes"
        }
      ],
      "name": "safeTransferFrom",
      "outputs": [],
      "stateMutability": "nonpayable",
      "type": "function"
    },
    {
      "inputs": [
        {
          "internalType": "address",
          "name": "operator",
          "type": "address"
        },
        {
          "internalType": "bool",
          "name": "approved",
          "type": "bool"
        }
      ],
      "name": "setApprovalForAll",
      "outputs": [],
      "stateMutability": "nonpayable",
      "type": "function"
    },
    {
      "inputs": [
        {
          "internalType": "bytes4",
          "name": "interfaceId",
          "type": "bytes4"
        }
      ],
      "name": "supportsInterface",
      "outputs": [
        {
          "internalType": "bool",
          "name": "",
          "type": "bool"
        }
      ],
      "stateMutability": "view",
      "type": "function"
    },
    {
      "inputs": [],
      "name": "symbol",
      "outputs": [
        {
          "internalType": "string",
          "name": "",
          "type": "string"
        }
      ],
      "stateMutability": "view",
      "type": "function"
    },
    {
      "inputs": [
        {
          "internalType": "uint256",
          "name": "index",
          "type": "uint256"
        }
      ],
      "name": "tokenByIndex",
      "outputs": [
        {
          "internalType": "uint256",
          "name": "",
          "type": "uint256"
        }
      ],
      "stateMutability": "view",
      "type": "function"
    },
    {
      "inputs": [
        {
          "internalType": "address",
          "name": "owner",
          "type": "address"
        },
        {
          "internalType": "uint256",
          "name": "index",
          "type": "uint256"
        }
      ],
      "name": "tokenOfOwnerByIndex",
      "outputs": [
        {
          "internalType": "uint256",
          "name": "",
          "type": "uint256"
        }
      ],
      "stateMutability": "view",
      "type": "function"
    },
    {
      "inputs": [
        {
          "internalType": "uint256",
          "name": "tokenId",
          "type": "uint256"
        }
      ],
      "name": "tokenURI",
      "outputs": [
        {
          "internalType": "string",
          "name": "",
          "type": "string"
        }
      ],
      "stateMutability": "view",
      "type": "function"
    },
    {
      "inputs": [],
      "name": "totalSupply",
      "outputs": [
        {
          "internalType": "uint256",
          "name": "",
          "type": "uint256"
        }
      ],
      "stateMutability": "view",
      "type": "function"
    },
    {
      "inputs": [
        {
          "internalType": "address",
          "name": "from",
          "type": "address"
        },
        {
          "internalType": "address",
          "name": "to",
          "type": "address"
        },
        {
          "internalType": "uint256",
          "name": "tokenId",
          "type": "uint256"
        }
      ],
      "name": "transferFrom",
      "outputs": [],
      "stateMutability": "nonpayable",
      "type": "function"
    }
  ],
  "bytecode": "0x60806040523480156200001157600080fd5b506040518060400160405280600781526020017f4d79546f6b656e000000000000000000000000000000000000000000000000008152506040518060400160405280600381526020017f4d544b0000000000000000000000000000000000000000000000000000000000815250816000908051906020019062000096929190620000b8565b508060019080519060200190620000af929190620000b8565b505050620001cd565b828054620000c69062000168565b90600052602060002090601f016020900481019282620000ea576000855562000136565b82601f106200010557805160ff191683800117855562000136565b8280016001018555821562000136579182015b828111156200013557825182559160200191906001019062000118565b5b50905062000145919062000149565b5090565b5b80821115620001645760008160009055506001016200014a565b5090565b600060028204905060018216806200018157607f821691505b602082108114156200019857620001976200019e565b5b50919050565b7f4e487b7100000000000000000000000000000000000000000000000000000000600052602260045260246000fd5b61311580620001dd6000396000f3fe608060405234801561001057600080fd5b506004361061010b5760003560e01c80634f6ccce7116100a2578063a22cb46511610071578063a22cb465146102de578063b88d4fde146102fa578063c87b56dd14610316578063d204c45e14610346578063e985e9c5146103625761010b565b80634f6ccce7146102305780636352211e1461026057806370a082311461029057806395d89b41146102c05761010b565b806318160ddd116100de57806318160ddd146101aa57806323b872dd146101c85780632f745c59146101e457806342842e0e146102145761010b565b806301ffc9a71461011057806306fdde0314610140578063081812fc1461015e578063095ea7b31461018e575b600080fd5b61012a6004803603810190610125919061230c565b610392565b60405161013791906126cc565b60405180910390f35b6101486103a4565b60405161015591906126e7565b60405180910390f35b6101786004803603810190610173919061235e565b610436565b6040516101859190612665565b60405180910390f35b6101a860048036038101906101a391906122d0565b61047c565b005b6101b2610594565b6040516101bf91906128c9565b60405180910390f35b6101e260048036038101906101dd9190612176565b6105a1565b005b6101fe60048036038101906101f991906122d0565b610601565b60405161020b91906128c9565b60405180910390f35b61022e60048036038101906102299190612176565b6106a6565b005b61024a6004803603810190610245919061235e565b6106c6565b60405161025791906128c9565b60405180910390f35b61027a6004803603810190610275919061235e565b61075d565b6040516102879190612665565b60405180910390f35b6102aa60048036038101906102a59190612111565b61080f565b6040516102b791906128c9565b60405180910390f35b6102c86108c7565b6040516102d591906126e7565b60405180910390f35b6102f860048036038101906102f39190612240565b610959565b005b610314600480360381019061030f91906121c5565b61096f565b005b610330600480360381019061032b919061235e565b6109d1565b60405161033d91906126e7565b60405180910390f35b610360600480360381019061035b919061227c565b6109e3565b005b61037c6004803603810190610377919061213a565b610a14565b60405161038991906126cc565b60405180910390f35b600061039d82610aa8565b9050919050565b6060600080546103b390612b1f565b80601f01602080910402602001604051908101604052809291908181526020018280546103df90612b1f565b801561042c5780601f106104015761010080835404028352916020019161042c565b820191906000526020600020905b81548152906001019060200180831161040f57829003601f168201915b5050505050905090565b600061044182610b22565b6004600083815260200190815260200160002060009054906101000a900473ffffffffffffffffffffffffffffffffffffffff169050919050565b60006104878261075d565b90508073ffffffffffffffffffffffffffffffffffffffff168373ffffffffffffffffffffffffffffffffffffffff1614156104f8576040517f08c379a00000000000000000000000000000000000000000000000000000000081526004016104ef90612869565b60405180910390fd5b8073ffffffffffffffffffffffffffffffffffffffff16610517610b6d565b73ffffffffffffffffffffffffffffffffffffffff161480610546575061054581610540610b6d565b610a14565b5b610585576040517f08c379a000000000000000000000000000000000000000000000000000000000815260040161057c90612809565b60405180910390fd5b61058f8383610b75565b505050565b6000600880549050905090565b6105b26105ac610b6d565b82610c2e565b6105f1576040517f08c379a00000000000000000000000000000000000000000000000000000000081526004016105e8906128a9565b60405180910390fd5b6105fc838383610cc3565b505050565b600061060c8361080f565b821061064d576040517f08c379a000000000000000000000000000000000000000000000000000000000815260040161064490612709565b60405180910390fd5b600660008473ffffffffffffffffffffffffffffffffffffffff1673ffffffffffffffffffffffffffffffffffffffff168152602001908152602001600020600083815260200190815260200160002054905092915050565b6106c18383836040518060200160405280600081525061096f565b505050565b60006106d0610594565b8210610711576040517f08c379a000000000000000000000000000000000000000000000000000000000815260040161070890612889565b60405180910390fd5b6008828154811061074b577f4e487b7100000000000000000000000000000000000000000000000000000000600052603260045260246000fd5b90600052602060002001549050919050565b6000806002600084815260200190815260200160002060009054906101000a900473ffffffffffffffffffffffffffffffffffffffff169050600073ffffffffffffffffffffffffffffffffffffffff168173ffffffffffffffffffffffffffffffffffffffff161415610806576040517f08c379a00000000000000000000000000000000000000000000000000000000081526004016107fd90612849565b60405180910390fd5b80915050919050565b60008073ffffffffffffffffffffffffffffffffffffffff168273ffffffffffffffffffffffffffffffffffffffff161415610880576040517f08c379a0000000000000000000000000000000000000000000000000000000008152600401610877906127c9565b60405180910390fd5b600360008373ffffffffffffffffffffffffffffffffffffffff1673ffffffffffffffffffffffffffffffffffffffff168152602001908152602001600020549050919050565b6060600180546108d690612b1f565b80601f016020809104026020016040519081016040528092919081815260200182805461090290612b1f565b801561094f5780601f106109245761010080835404028352916020019161094f565b820191906000526020600020905b81548152906001019060200180831161093257829003601f168201915b5050505050905090565b61096b610964610b6d565b8383610f2a565b5050565b61098061097a610b6d565b83610c2e565b6109bf576040517f08c379a00000000000000000000000000000000000000000000000000000000081526004016109b6906128a9565b60405180910390fd5b6109cb84848484611097565b50505050565b60606109dc826110f3565b9050919050565b60006109ef600b611206565b90506109fb600b611214565b610a05838261122a565b610a0f8183611248565b505050565b6000600560008473ffffffffffffffffffffffffffffffffffffffff1673ffffffffffffffffffffffffffffffffffffffff16815260200190815260200160002060008373ffffffffffffffffffffffffffffffffffffffff1673ffffffffffffffffffffffffffffffffffffffff16815260200190815260200160002060009054906101000a900460ff16905092915050565b60007f780e9d63000000000000000000000000000000000000000000000000000000007bffffffffffffffffffffffffffffffffffffffffffffffffffffffff1916827bffffffffffffffffffffffffffffffffffffffffffffffffffffffff19161480610b1b5750610b1a826112bc565b5b9050919050565b610b2b8161139e565b610b6a576040517f08c379a0000000000000000000000000000000000000000000000000000000008152600401610b6190612849565b60405180910390fd5b50565b600033905090565b816004600083815260200190815260200160002060006101000a81548173ffffffffffffffffffffffffffffffffffffffff021916908373ffffffffffffffffffffffffffffffffffffffff160217905550808273ffffffffffffffffffffffffffffffffffffffff16610be88361075d565b73ffffffffffffffffffffffffffffffffffffffff167f8c5be1e5ebec7d5bd14f71427d1e84f3dd0314c0f7b2291e5b200ac8c7c3b92560405160405180910390a45050565b600080610c3a8361075d565b90508073ffffffffffffffffffffffffffffffffffffffff168473ffffffffffffffffffffffffffffffffffffffff161480610c7c5750610c7b8185610a14565b5b80610cba57508373ffffffffffffffffffffffffffffffffffffffff16610ca284610436565b73ffffffffffffffffffffffffffffffffffffffff16145b91505092915050565b8273ffffffffffffffffffffffffffffffffffffffff16610ce38261075d565b73ffffffffffffffffffffffffffffffffffffffff1614610d39576040517f08c379a0000000000000000000000000000000000000000000000000000000008152600401610d3090612749565b60405180910390fd5b600073ffffffffffffffffffffffffffffffffffffffff168273ffffffffffffffffffffffffffffffffffffffff161415610da9576040517f08c379a0000000000000000000000000000000000000000000000000000000008152600401610da090612789565b60405180910390fd5b610db483838361140a565b610dbf600082610b75565b6001600360008573ffffffffffffffffffffffffffffffffffffffff1673ffffffffffffffffffffffffffffffffffffffff1681526020019081526020016000206000828254610e0f9190612a35565b925050819055506001600360008473ffffffffffffffffffffffffffffffffffffffff1673ffffffffffffffffffffffffffffffffffffffff1681526020019081526020016000206000828254610e6691906129ae565b92505081905550816002600083815260200190815260200160002060006101000a81548173ffffffffffffffffffffffffffffffffffffffff021916908373ffffffffffffffffffffffffffffffffffffffff160217905550808273ffffffffffffffffffffffffffffffffffffffff168473ffffffffffffffffffffffffffffffffffffffff167fddf252ad1be2c89b69c2b068fc378daa952ba7f163c4a11628f55a4df523b3ef60405160405180910390a4610f2583838361141a565b505050565b8173ffffffffffffffffffffffffffffffffffffffff168373ffffffffffffffffffffffffffffffffffffffff161415610f99576040517f08c379a0000000000000000000000000000000000000000000000000000000008152600401610f90906127a9565b60405180910390fd5b80600560008573ffffffffffffffffffffffffffffffffffffffff1673ffffffffffffffffffffffffffffffffffffffff16815260200190815260200160002060008473ffffffffffffffffffffffffffffffffffffffff1673ffffffffffffffffffffffffffffffffffffffff16815260200190815260200160002060006101000a81548160ff0219169083151502179055508173ffffffffffffffffffffffffffffffffffffffff168373ffffffffffffffffffffffffffffffffffffffff167f17307eab39ab6107e8899845ad3d59bd9653f200f220920489ca2b5937696c318360405161108a91906126cc565b60405180910390a3505050565b6110a2848484610cc3565b6110ae8484848461141f565b6110ed576040517f08c379a00000000000000000000000000000000000000000000000000000000081526004016110e490612729565b60405180910390fd5b50505050565b60606110fe82610b22565b6000600a6000848152602001908152602001600020805461111e90612b1f565b80601f016020809104026020016040519081016040528092919081815260200182805461114a90612b1f565b80156111975780601f1061116c57610100808354040283529160200191611197565b820191906000526020600020905b81548152906001019060200180831161117a57829003601f168201915b5050505050905060006111a86115b6565b90506000815114156111be578192505050611201565b6000825111156111f35780826040516020016111db929190612641565b60405160208183030381529060405292505050611201565b6111fc846115cd565b925050505b919050565b600081600001549050919050565b6001816000016000828254019250508190555050565b611244828260405180602001604052806000815250611635565b5050565b6112518261139e565b611290576040517f08c379a0000000000000000000000000000000000000000000000000000000008152600401611287906127e9565b60405180910390fd5b80600a600084815260200190815260200160002090805190602001906112b7929190611f35565b505050565b60007f80ac58cd000000000000000000000000000000000000000000000000000000007bffffffffffffffffffffffffffffffffffffffffffffffffffffffff1916827bffffffffffffffffffffffffffffffffffffffffffffffffffffffff1916148061138757507f5b5e139f000000000000000000000000000000000000000000000000000000007bffffffffffffffffffffffffffffffffffffffffffffffffffffffff1916827bffffffffffffffffffffffffffffffffffffffffffffffffffffffff1916145b80611397575061139682611690565b5b9050919050565b60008073ffffffffffffffffffffffffffffffffffffffff166002600084815260200190815260200160002060009054906101000a900473ffffffffffffffffffffffffffffffffffffffff1673ffffffffffffffffffffffffffffffffffffffff1614159050919050565b6114158383836116fa565b505050565b505050565b60006114408473ffffffffffffffffffffffffffffffffffffffff1661180e565b156115a9578373ffffffffffffffffffffffffffffffffffffffff1663150b7a02611469610b6d565b8786866040518563ffffffff1660e01b815260040161148b9493929190612680565b602060405180830381600087803b1580156114a557600080fd5b505af19250505080156114d657506040513d601f19601f820116820180604052508101906114d39190612335565b60015b611559573d8060008114611506576040519150601f19603f3d011682016040523d82523d6000602084013e61150b565b606091505b50600081511415611551576040517f08c379a000000000000000000000000000000000000000000000000000000000815260040161154890612729565b60405180910390fd5b805181602001fd5b63150b7a0260e01b7bffffffffffffffffffffffffffffffffffffffffffffffffffffffff1916817bffffffffffffffffffffffffffffffffffffffffffffffffffffffff1916149150506115ae565b600190505b949350505050565b606060405180602001604052806000815250905090565b60606115d882610b22565b60006115e26115b6565b90506000815111611602576040518060200160405280600081525061162d565b8061160c84611831565b60405160200161161d929190612641565b6040516020818303038152906040525b915050919050565b61163f83836119de565b61164c600084848461141f565b61168b576040517f08c379a000000000000000000000000000000000000000000000000000000000815260040161168290612729565b60405180910390fd5b505050565b60007f01ffc9a7000000000000000000000000000000000000000000000000000000007bffffffffffffffffffffffffffffffffffffffffffffffffffffffff1916827bffffffffffffffffffffffffffffffffffffffffffffffffffffffff1916149050919050565b611705838383611bb8565b600073ffffffffffffffffffffffffffffffffffffffff168373ffffffffffffffffffffffffffffffffffffffff1614156117485761174381611bbd565b611787565b8173ffffffffffffffffffffffffffffffffffffffff168373ffffffffffffffffffffffffffffffffffffffff1614611786576117858382611c06565b5b5b600073ffffffffffffffffffffffffffffffffffffffff168273ffffffffffffffffffffffffffffffffffffffff1614156117ca576117c581611d73565b611809565b8273ffffffffffffffffffffffffffffffffffffffff168273ffffffffffffffffffffffffffffffffffffffff1614611808576118078282611eb6565b5b5b505050565b6000808273ffffffffffffffffffffffffffffffffffffffff163b119050919050565b60606000821415611879576040518060400160405280600181526020017f300000000000000000000000000000000000000000000000000000000000000081525090506119d9565b600082905060005b600082146118ab57808061189490612b82565b915050600a826118a49190612a04565b9150611881565b60008167ffffffffffffffff8111156118ed577f4e487b7100000000000000000000000000000000000000000000000000000000600052604160045260246000fd5b6040519080825280601f01601f19166020018201604052801561191f5781602001600182028036833780820191505090505b5090505b600085146119d2576001826119389190612a35565b9150600a856119479190612bcb565b603061195391906129ae565b60f81b81838151811061198f577f4e487b7100000000000000000000000000000000000000000000000000000000600052603260045260246000fd5b60200101907effffffffffffffffffffffffffffffffffffffffffffffffffffffffffffff1916908160001a905350600a856119cb9190612a04565b9450611923565b8093505050505b919050565b600073ffffffffffffffffffffffffffffffffffffffff168273ffffffffffffffffffffffffffffffffffffffff161415611a4e576040517f08c379a0000000000000000000000000000000000000000000000000000000008152600401611a4590612829565b60405180910390fd5b611a578161139e565b15611a97576040517f08c379a0000000000000000000000000000000000000000000000000000000008152600401611a8e90612769565b60405180910390fd5b611aa36000838361140a565b6001600360008473ffffffffffffffffffffffffffffffffffffffff1673ffffffffffffffffffffffffffffffffffffffff1681526020019081526020016000206000828254611af391906129ae565b92505081905550816002600083815260200190815260200160002060006101000a81548173ffffffffffffffffffffffffffffffffffffffff021916908373ffffffffffffffffffffffffffffffffffffffff160217905550808273ffffffffffffffffffffffffffffffffffffffff16600073ffffffffffffffffffffffffffffffffffffffff167fddf252ad1be2c89b69c2b068fc378daa952ba7f163c4a11628f55a4df523b3ef60405160405180910390a4611bb46000838361141a565b5050565b505050565b6008805490506009600083815260200190815260200160002081905550600881908060018154018082558091505060019003906000526020600020016000909190919091505550565b60006001611c138461080f565b611c1d9190612a35565b9050600060076000848152602001908152602001600020549050818114611d02576000600660008673ffffffffffffffffffffffffffffffffffffffff1673ffffffffffffffffffffffffffffffffffffffff168152602001908152602001600020600084815260200190815260200160002054905080600660008773ffffffffffffffffffffffffffffffffffffffff1673ffffffffffffffffffffffffffffffffffffffff168152602001908152602001600020600084815260200190815260200160002081905550816007600083815260200190815260200160002081905550505b6007600084815260200190815260200160002060009055600660008573ffffffffffffffffffffffffffffffffffffffff1673ffffffffffffffffffffffffffffffffffffffff16815260200190815260200160002060008381526020019081526020016000206000905550505050565b60006001600880549050611d879190612a35565b9050600060096000848152602001908152602001600020549050600060088381548110611ddd577f4e487b7100000000000000000000000000000000000000000000000000000000600052603260045260246000fd5b906000526020600020015490508060088381548110611e25577f4e487b7100000000000000000000000000000000000000000000000000000000600052603260045260246000fd5b906000526020600020018190555081600960008381526020019081526020016000208190555060096000858152602001908152602001600020600090556008805480611e9a577f4e487b7100000000000000000000000000000000000000000000000000000000600052603160045260246000fd5b6001900381819060005260206000200160009055905550505050565b6000611ec18361080f565b905081600660008573ffffffffffffffffffffffffffffffffffffffff1673ffffffffffffffffffffffffffffffffffffffff168152602001908152602001600020600083815260200190815260200160002081905550806007600084815260200190815260200160002081905550505050565b828054611f4190612b1f565b90600052602060002090601f016020900481019282611f635760008555611faa565b82601f10611f7c57805160ff1916838001178555611faa565b82800160010185558215611faa579182015b82811115611fa9578251825591602001919060010190611f8e565b5b509050611fb79190611fbb565b5090565b5b80821115611fd4576000816000905550600101611fbc565b5090565b6000611feb611fe684612909565b6128e4565b90508281526020810184848401111561200357600080fd5b61200e848285612add565b509392505050565b60006120296120248461293a565b6128e4565b90508281526020810184848401111561204157600080fd5b61204c848285612add565b509392505050565b60008135905061206381613083565b92915050565b6000813590506120788161309a565b92915050565b60008135905061208d816130b1565b92915050565b6000815190506120a2816130b1565b92915050565b600082601f8301126120b957600080fd5b81356120c9848260208601611fd8565b91505092915050565b600082601f8301126120e357600080fd5b81356120f3848260208601612016565b91505092915050565b60008135905061210b816130c8565b92915050565b60006020828403121561212357600080fd5b600061213184828501612054565b91505092915050565b6000806040838503121561214d57600080fd5b600061215b85828601612054565b925050602061216c85828601612054565b9150509250929050565b60008060006060848603121561218b57600080fd5b600061219986828701612054565b93505060206121aa86828701612054565b92505060406121bb868287016120fc565b9150509250925092565b600080600080608085870312156121db57600080fd5b60006121e987828801612054565b94505060206121fa87828801612054565b935050604061220b878288016120fc565b925050606085013567ffffffffffffffff81111561222857600080fd5b612234878288016120a8565b91505092959194509250565b6000806040838503121561225357600080fd5b600061226185828601612054565b925050602061227285828601612069565b9150509250929050565b6000806040838503121561228f57600080fd5b600061229d85828601612054565b925050602083013567ffffffffffffffff8111156122ba57600080fd5b6122c6858286016120d2565b9150509250929050565b600080604083850312156122e357600080fd5b60006122f185828601612054565b9250506020612302858286016120fc565b9150509250929050565b60006020828403121561231e57600080fd5b600061232c8482850161207e565b91505092915050565b60006020828403121561234757600080fd5b600061235584828501612093565b91505092915050565b60006020828403121561237057600080fd5b600061237e848285016120fc565b91505092915050565b61239081612a69565b82525050565b61239f81612a7b565b82525050565b60006123b08261296b565b6123ba8185612981565b93506123ca818560208601612aec565b6123d381612cb8565b840191505092915050565b60006123e982612976565b6123f38185612992565b9350612403818560208601612aec565b61240c81612cb8565b840191505092915050565b600061242282612976565b61242c81856129a3565b935061243c818560208601612aec565b80840191505092915050565b6000612455602b83612992565b915061246082612cc9565b604082019050919050565b6000612478603283612992565b915061248382612d18565b604082019050919050565b600061249b602583612992565b91506124a682612d67565b604082019050919050565b60006124be601c83612992565b91506124c982612db6565b602082019050919050565b60006124e1602483612992565b91506124ec82612ddf565b604082019050919050565b6000612504601983612992565b915061250f82612e2e565b602082019050919050565b6000612527602983612992565b915061253282612e57565b604082019050919050565b600061254a602e83612992565b915061255582612ea6565b604082019050919050565b600061256d603e83612992565b915061257882612ef5565b604082019050919050565b6000612590602083612992565b915061259b82612f44565b602082019050919050565b60006125b3601883612992565b91506125be82612f6d565b602082019050919050565b60006125d6602183612992565b91506125e182612f96565b604082019050919050565b60006125f9602c83612992565b915061260482612fe5565b604082019050919050565b600061261c602e83612992565b915061262782613034565b604082019050919050565b61263b81612ad3565b82525050565b600061264d8285612417565b91506126598284612417565b91508190509392505050565b600060208201905061267a6000830184612387565b92915050565b60006080820190506126956000830187612387565b6126a26020830186612387565b6126af6040830185612632565b81810360608301526126c181846123a5565b905095945050505050565b60006020820190506126e16000830184612396565b92915050565b6000602082019050818103600083015261270181846123de565b905092915050565b6000602082019050818103600083015261272281612448565b9050919050565b600060208201905081810360008301526127428161246b565b9050919050565b600060208201905081810360008301526127628161248e565b9050919050565b60006020820190508181036000830152612782816124b1565b9050919050565b600060208201905081810360008301526127a2816124d4565b9050919050565b600060208201905081810360008301526127c2816124f7565b9050919050565b600060208201905081810360008301526127e28161251a565b9050919050565b600060208201905081810360008301526128028161253d565b9050919050565b6000602082019050818103600083015261282281612560565b9050919050565b6000602082019050818103600083015261284281612583565b9050919050565b60006020820190508181036000830152612862816125a6565b9050919050565b60006020820190508181036000830152612882816125c9565b9050919050565b600060208201905081810360008301526128a2816125ec565b9050919050565b600060208201905081810360008301526128c28161260f565b9050919050565b60006020820190506128de6000830184612632565b92915050565b60006128ee6128ff565b90506128fa8282612b51565b919050565b6000604051905090565b600067ffffffffffffffff82111561292457612923612c89565b5b61292d82612cb8565b9050602081019050919050565b600067ffffffffffffffff82111561295557612954612c89565b5b61295e82612cb8565b9050602081019050919050565b600081519050919050565b600081519050919050565b600082825260208201905092915050565b600082825260208201905092915050565b600081905092915050565b60006129b982612ad3565b91506129c483612ad3565b9250827fffffffffffffffffffffffffffffffffffffffffffffffffffffffffffffffff038211156129f9576129f8612bfc565b5b828201905092915050565b6000612a0f82612ad3565b9150612a1a83612ad3565b925082612a2a57612a29612c2b565b5b828204905092915050565b6000612a4082612ad3565b9150612a4b83612ad3565b925082821015612a5e57612a5d612bfc565b5b828203905092915050565b6000612a7482612ab3565b9050919050565b60008115159050919050565b60007fffffffff0000000000000000000000000000000000000000000000000000000082169050919050565b600073ffffffffffffffffffffffffffffffffffffffff82169050919050565b6000819050919050565b82818337600083830152505050565b60005b83811015612b0a578082015181840152602081019050612aef565b83811115612b19576000848401525b50505050565b60006002820490506001821680612b3757607f821691505b60208210811415612b4b57612b4a612c5a565b5b50919050565b612b5a82612cb8565b810181811067ffffffffffffffff82111715612b7957612b78612c89565b5b80604052505050565b6000612b8d82612ad3565b91507fffffffffffffffffffffffffffffffffffffffffffffffffffffffffffffffff821415612bc057612bbf612bfc565b5b600182019050919050565b6000612bd682612ad3565b9150612be183612ad3565b925082612bf157612bf0612c2b565b5b828206905092915050565b7f4e487b7100000000000000000000000000000000000000000000000000000000600052601160045260246000fd5b7f4e487b7100000000000000000000000000000000000000000000000000000000600052601260045260246000fd5b7f4e487b7100000000000000000000000000000000000000000000000000000000600052602260045260246000fd5b7f4e487b7100000000000000000000000000000000000000000000000000000000600052604160045260246000fd5b6000601f19601f8301169050919050565b7f455243373231456e756d657261626c653a206f776e657220696e646578206f7560008201527f74206f6620626f756e6473000000000000000000000000000000000000000000602082015250565b7f4552433732313a207472616e7366657220746f206e6f6e20455243373231526560008201527f63656976657220696d706c656d656e7465720000000000000000000000000000602082015250565b7f4552433732313a207472616e736665722066726f6d20696e636f72726563742060008201527f6f776e6572000000000000000000000000000000000000000000000000000000602082015250565b7f4552433732313a20746f6b656e20616c7265616479206d696e74656400000000600082015250565b7f4552433732313a207472616e7366657220746f20746865207a65726f2061646460008201527f7265737300000000000000000000000000000000000000000000000000000000602082015250565b7f4552433732313a20617070726f766520746f2063616c6c657200000000000000600082015250565b7f4552433732313a2061646472657373207a65726f206973206e6f74206120766160008201527f6c6964206f776e65720000000000000000000000000000000000000000000000602082015250565b7f45524337323155524953746f726167653a2055524920736574206f66206e6f6e60008201527f6578697374656e7420746f6b656e000000000000000000000000000000000000602082015250565b7f4552433732313a20617070726f76652063616c6c6572206973206e6f7420746f60008201527f6b656e206f776e6572206e6f7220617070726f76656420666f7220616c6c0000602082015250565b7f4552433732313a206d696e7420746f20746865207a65726f2061646472657373600082015250565b7f4552433732313a20696e76616c696420746f6b656e2049440000000000000000600082015250565b7f4552433732313a20617070726f76616c20746f2063757272656e74206f776e6560008201527f7200000000000000000000000000000000000000000000000000000000000000602082015250565b7f455243373231456e756d657261626c653a20676c6f62616c20696e646578206f60008201527f7574206f6620626f756e64730000000000000000000000000000000000000000602082015250565b7f4552433732313a2063616c6c6572206973206e6f7420746f6b656e206f776e6560008201527f72206e6f7220617070726f766564000000000000000000000000000000000000602082015250565b61308c81612a69565b811461309757600080fd5b50565b6130a381612a7b565b81146130ae57600080fd5b50565b6130ba81612a87565b81146130c557600080fd5b50565b6130d181612ad3565b81146130dc57600080fd5b5056fea2646970667358221220f3fec5b615d3cc7ef795b0d34b646562e278ad5ef0c093acc3487ee8c60cdb8064736f6c63430008040033",
  "linkReferences": {},
  "deployedLinkReferences": {}
}